{
  "_format": "hh-sol-artifact-1",
  "contractName": "ZinUru",
  "sourceName": "contracts/zin-uru.sol",
  "abi": [
    {
      "inputs": [],
      "stateMutability": "nonpayable",
      "type": "constructor"
    },
    {
      "anonymous": false,
      "inputs": [
        {
          "indexed": true,
          "internalType": "address",
          "name": "owner",
          "type": "address"
        },
        {
          "indexed": true,
          "internalType": "address",
          "name": "spender",
          "type": "address"
        },
        {
          "indexed": false,
          "internalType": "uint256",
          "name": "value",
          "type": "uint256"
        }
      ],
      "name": "Approval",
      "type": "event"
    },
    {
      "anonymous": false,
      "inputs": [
        {
          "indexed": false,
          "internalType": "address",
          "name": "account",
          "type": "address"
        }
      ],
      "name": "Paused",
      "type": "event"
    },
    {
      "anonymous": false,
      "inputs": [
        {
          "indexed": true,
          "internalType": "bytes32",
          "name": "role",
          "type": "bytes32"
        },
        {
          "indexed": true,
          "internalType": "bytes32",
          "name": "previousAdminRole",
          "type": "bytes32"
        },
        {
          "indexed": true,
          "internalType": "bytes32",
          "name": "newAdminRole",
          "type": "bytes32"
        }
      ],
      "name": "RoleAdminChanged",
      "type": "event"
    },
    {
      "anonymous": false,
      "inputs": [
        {
          "indexed": true,
          "internalType": "bytes32",
          "name": "role",
          "type": "bytes32"
        },
        {
          "indexed": true,
          "internalType": "address",
          "name": "account",
          "type": "address"
        },
        {
          "indexed": true,
          "internalType": "address",
          "name": "sender",
          "type": "address"
        }
      ],
      "name": "RoleGranted",
      "type": "event"
    },
    {
      "anonymous": false,
      "inputs": [
        {
          "indexed": true,
          "internalType": "bytes32",
          "name": "role",
          "type": "bytes32"
        },
        {
          "indexed": true,
          "internalType": "address",
          "name": "account",
          "type": "address"
        },
        {
          "indexed": true,
          "internalType": "address",
          "name": "sender",
          "type": "address"
        }
      ],
      "name": "RoleRevoked",
      "type": "event"
    },
    {
      "anonymous": false,
      "inputs": [
        {
          "indexed": false,
          "internalType": "uint256",
          "name": "id",
          "type": "uint256"
        }
      ],
      "name": "Snapshot",
      "type": "event"
    },
    {
      "anonymous": false,
      "inputs": [
        {
          "indexed": true,
          "internalType": "address",
          "name": "from",
          "type": "address"
        },
        {
          "indexed": true,
          "internalType": "address",
          "name": "to",
          "type": "address"
        },
        {
          "indexed": false,
          "internalType": "uint256",
          "name": "value",
          "type": "uint256"
        }
      ],
      "name": "Transfer",
      "type": "event"
    },
    {
      "anonymous": false,
      "inputs": [
        {
          "indexed": false,
          "internalType": "address",
          "name": "account",
          "type": "address"
        }
      ],
      "name": "Unpaused",
      "type": "event"
    },
    {
      "inputs": [],
      "name": "DEFAULT_ADMIN_ROLE",
      "outputs": [
        {
          "internalType": "bytes32",
          "name": "",
          "type": "bytes32"
        }
      ],
      "stateMutability": "view",
      "type": "function"
    },
    {
      "inputs": [],
      "name": "DOMAIN_SEPARATOR",
      "outputs": [
        {
          "internalType": "bytes32",
          "name": "",
          "type": "bytes32"
        }
      ],
      "stateMutability": "view",
      "type": "function"
    },
    {
      "inputs": [],
      "name": "MINTER_ROLE",
      "outputs": [
        {
          "internalType": "bytes32",
          "name": "",
          "type": "bytes32"
        }
      ],
      "stateMutability": "view",
      "type": "function"
    },
    {
      "inputs": [],
      "name": "PAUSER_ROLE",
      "outputs": [
        {
          "internalType": "bytes32",
          "name": "",
          "type": "bytes32"
        }
      ],
      "stateMutability": "view",
      "type": "function"
    },
    {
      "inputs": [],
      "name": "SNAPSHOT_ROLE",
      "outputs": [
        {
          "internalType": "bytes32",
          "name": "",
          "type": "bytes32"
        }
      ],
      "stateMutability": "view",
      "type": "function"
    },
    {
      "inputs": [
        {
          "internalType": "address",
          "name": "owner",
          "type": "address"
        },
        {
          "internalType": "address",
          "name": "spender",
          "type": "address"
        }
      ],
      "name": "allowance",
      "outputs": [
        {
          "internalType": "uint256",
          "name": "",
          "type": "uint256"
        }
      ],
      "stateMutability": "view",
      "type": "function"
    },
    {
      "inputs": [
        {
          "internalType": "address",
          "name": "spender",
          "type": "address"
        },
        {
          "internalType": "uint256",
          "name": "amount",
          "type": "uint256"
        }
      ],
      "name": "approve",
      "outputs": [
        {
          "internalType": "bool",
          "name": "",
          "type": "bool"
        }
      ],
      "stateMutability": "nonpayable",
      "type": "function"
    },
    {
      "inputs": [
        {
          "internalType": "address",
          "name": "account",
          "type": "address"
        }
      ],
      "name": "balanceOf",
      "outputs": [
        {
          "internalType": "uint256",
          "name": "",
          "type": "uint256"
        }
      ],
      "stateMutability": "view",
      "type": "function"
    },
    {
      "inputs": [
        {
          "internalType": "address",
          "name": "account",
          "type": "address"
        },
        {
          "internalType": "uint256",
          "name": "snapshotId",
          "type": "uint256"
        }
      ],
      "name": "balanceOfAt",
      "outputs": [
        {
          "internalType": "uint256",
          "name": "",
          "type": "uint256"
        }
      ],
      "stateMutability": "view",
      "type": "function"
    },
    {
      "inputs": [
        {
          "internalType": "uint256",
          "name": "amount",
          "type": "uint256"
        }
      ],
      "name": "burn",
      "outputs": [],
      "stateMutability": "nonpayable",
      "type": "function"
    },
    {
      "inputs": [
        {
          "internalType": "address",
          "name": "account",
          "type": "address"
        },
        {
          "internalType": "uint256",
          "name": "amount",
          "type": "uint256"
        }
      ],
      "name": "burnFrom",
      "outputs": [],
      "stateMutability": "nonpayable",
      "type": "function"
    },
    {
      "inputs": [],
      "name": "decimals",
      "outputs": [
        {
          "internalType": "uint8",
          "name": "",
          "type": "uint8"
        }
      ],
      "stateMutability": "view",
      "type": "function"
    },
    {
      "inputs": [
        {
          "internalType": "address",
          "name": "spender",
          "type": "address"
        },
        {
          "internalType": "uint256",
          "name": "subtractedValue",
          "type": "uint256"
        }
      ],
      "name": "decreaseAllowance",
      "outputs": [
        {
          "internalType": "bool",
          "name": "",
          "type": "bool"
        }
      ],
      "stateMutability": "nonpayable",
      "type": "function"
    },
    {
      "inputs": [
        {
          "internalType": "bytes32",
          "name": "role",
          "type": "bytes32"
        }
      ],
      "name": "getRoleAdmin",
      "outputs": [
        {
          "internalType": "bytes32",
          "name": "",
          "type": "bytes32"
        }
      ],
      "stateMutability": "view",
      "type": "function"
    },
    {
      "inputs": [
        {
          "internalType": "bytes32",
          "name": "role",
          "type": "bytes32"
        },
        {
          "internalType": "address",
          "name": "account",
          "type": "address"
        }
      ],
      "name": "grantRole",
      "outputs": [],
      "stateMutability": "nonpayable",
      "type": "function"
    },
    {
      "inputs": [
        {
          "internalType": "bytes32",
          "name": "role",
          "type": "bytes32"
        },
        {
          "internalType": "address",
          "name": "account",
          "type": "address"
        }
      ],
      "name": "hasRole",
      "outputs": [
        {
          "internalType": "bool",
          "name": "",
          "type": "bool"
        }
      ],
      "stateMutability": "view",
      "type": "function"
    },
    {
      "inputs": [
        {
          "internalType": "address",
          "name": "spender",
          "type": "address"
        },
        {
          "internalType": "uint256",
          "name": "addedValue",
          "type": "uint256"
        }
      ],
      "name": "increaseAllowance",
      "outputs": [
        {
          "internalType": "bool",
          "name": "",
          "type": "bool"
        }
      ],
      "stateMutability": "nonpayable",
      "type": "function"
    },
    {
      "inputs": [
        {
          "internalType": "address",
          "name": "to",
          "type": "address"
        },
        {
          "internalType": "uint256",
          "name": "amount",
          "type": "uint256"
        }
      ],
      "name": "mint",
      "outputs": [],
      "stateMutability": "nonpayable",
      "type": "function"
    },
    {
      "inputs": [],
      "name": "name",
      "outputs": [
        {
          "internalType": "string",
          "name": "",
          "type": "string"
        }
      ],
      "stateMutability": "view",
      "type": "function"
    },
    {
      "inputs": [
        {
          "internalType": "address",
          "name": "owner",
          "type": "address"
        }
      ],
      "name": "nonces",
      "outputs": [
        {
          "internalType": "uint256",
          "name": "",
          "type": "uint256"
        }
      ],
      "stateMutability": "view",
      "type": "function"
    },
    {
      "inputs": [],
      "name": "pause",
      "outputs": [],
      "stateMutability": "nonpayable",
      "type": "function"
    },
    {
      "inputs": [],
      "name": "paused",
      "outputs": [
        {
          "internalType": "bool",
          "name": "",
          "type": "bool"
        }
      ],
      "stateMutability": "view",
      "type": "function"
    },
    {
      "inputs": [
        {
          "internalType": "address",
          "name": "owner",
          "type": "address"
        },
        {
          "internalType": "address",
          "name": "spender",
          "type": "address"
        },
        {
          "internalType": "uint256",
          "name": "value",
          "type": "uint256"
        },
        {
          "internalType": "uint256",
          "name": "deadline",
          "type": "uint256"
        },
        {
          "internalType": "uint8",
          "name": "v",
          "type": "uint8"
        },
        {
          "internalType": "bytes32",
          "name": "r",
          "type": "bytes32"
        },
        {
          "internalType": "bytes32",
          "name": "s",
          "type": "bytes32"
        }
      ],
      "name": "permit",
      "outputs": [],
      "stateMutability": "nonpayable",
      "type": "function"
    },
    {
      "inputs": [
        {
          "internalType": "bytes32",
          "name": "role",
          "type": "bytes32"
        },
        {
          "internalType": "address",
          "name": "account",
          "type": "address"
        }
      ],
      "name": "renounceRole",
      "outputs": [],
      "stateMutability": "nonpayable",
      "type": "function"
    },
    {
      "inputs": [
        {
          "internalType": "bytes32",
          "name": "role",
          "type": "bytes32"
        },
        {
          "internalType": "address",
          "name": "account",
          "type": "address"
        }
      ],
      "name": "revokeRole",
      "outputs": [],
      "stateMutability": "nonpayable",
      "type": "function"
    },
    {
      "inputs": [],
      "name": "snapshot",
      "outputs": [],
      "stateMutability": "nonpayable",
      "type": "function"
    },
    {
      "inputs": [
        {
          "internalType": "bytes4",
          "name": "interfaceId",
          "type": "bytes4"
        }
      ],
      "name": "supportsInterface",
      "outputs": [
        {
          "internalType": "bool",
          "name": "",
          "type": "bool"
        }
      ],
      "stateMutability": "view",
      "type": "function"
    },
    {
      "inputs": [],
      "name": "symbol",
      "outputs": [
        {
          "internalType": "string",
          "name": "",
          "type": "string"
        }
      ],
      "stateMutability": "view",
      "type": "function"
    },
    {
      "inputs": [],
      "name": "totalSupply",
      "outputs": [
        {
          "internalType": "uint256",
          "name": "",
          "type": "uint256"
        }
      ],
      "stateMutability": "view",
      "type": "function"
    },
    {
      "inputs": [
        {
          "internalType": "uint256",
          "name": "snapshotId",
          "type": "uint256"
        }
      ],
      "name": "totalSupplyAt",
      "outputs": [
        {
          "internalType": "uint256",
          "name": "",
          "type": "uint256"
        }
      ],
      "stateMutability": "view",
      "type": "function"
    },
    {
      "inputs": [
        {
          "internalType": "address",
          "name": "recipient",
          "type": "address"
        },
        {
          "internalType": "uint256",
          "name": "amount",
          "type": "uint256"
        }
      ],
      "name": "transfer",
      "outputs": [
        {
          "internalType": "bool",
          "name": "",
          "type": "bool"
        }
      ],
      "stateMutability": "nonpayable",
      "type": "function"
    },
    {
      "inputs": [
        {
          "internalType": "address",
          "name": "sender",
          "type": "address"
        },
        {
          "internalType": "address",
          "name": "recipient",
          "type": "address"
        },
        {
          "internalType": "uint256",
          "name": "amount",
          "type": "uint256"
        }
      ],
      "name": "transferFrom",
      "outputs": [
        {
          "internalType": "bool",
          "name": "",
          "type": "bool"
        }
      ],
      "stateMutability": "nonpayable",
      "type": "function"
    },
    {
      "inputs": [],
      "name": "unpause",
      "outputs": [],
      "stateMutability": "nonpayable",
      "type": "function"
    }
  ],
  "bytecode": "0x6101406040527f6e71edae12b1b97f4d1f60370fef10105fa2faae0126114a169c64845d6126c9610120908152503480156200003a57600080fd5b506040518060400160405280600781526020017f5a696e2d55727500000000000000000000000000000000000000000000000000815250806040518060400160405280600181526020017f31000000000000000000000000000000000000000000000000000000000000008152506040518060400160405280600781526020017f5a696e2d557275000000000000000000000000000000000000000000000000008152506040518060400160405280600681526020017f7a696e757275000000000000000000000000000000000000000000000000000081525081600390805190602001906200012c9291906200096e565b508060049080519060200190620001459291906200096e565b5050506000600a60006101000a81548160ff02191690831515021790555060008280519060200120905060008280519060200120905060007f8b73c3c69bb8fe3d512ecc4cf759cc79239f7b179b0ffacaa9a75d522b39400f90508260c081815250508160e081815250504660a08181525050620001cb818484620002d060201b60201c565b60808181525050806101008181525050505050505050620001f66000801b336200030c60201b60201c565b620002287f5fdbd35e8da83ee755d5e62a539e5ed7f47126abede0b8b10f9ea43dc6eed07f336200030c60201b60201c565b6200025a7f65d7a28e3265b37a6474929f336521b332c1681b933f6cb9f3376673440d862a336200030c60201b60201c565b62000298336200026f6200032260201b60201c565b600a6200027d919062000c5c565b6103e86200028c919062000d99565b6200032b60201b60201c565b620002ca7f9f2df0fed2c77648de5860a4cc508cd0818c85b8b8a1ab4ceeef8d981c8956a6336200030c60201b60201c565b62000f2b565b60008383834630604051602001620002ed95949392919062000ad5565b6040516020818303038152906040528051906020012090509392505050565b6200031e82826200049060201b60201c565b5050565b60006012905090565b600073ffffffffffffffffffffffffffffffffffffffff168273ffffffffffffffffffffffffffffffffffffffff1614156200039e576040517f08c379a0000000000000000000000000000000000000000000000000000000008152600401620003959062000b54565b60405180910390fd5b620003b2600083836200058260201b60201c565b8060026000828254620003c6919062000ba4565b92505081905550806000808473ffffffffffffffffffffffffffffffffffffffff1673ffffffffffffffffffffffffffffffffffffffff16815260200190815260200160002060008282546200041d919062000ba4565b925050819055508173ffffffffffffffffffffffffffffffffffffffff16600073ffffffffffffffffffffffffffffffffffffffff167fddf252ad1be2c89b69c2b068fc378daa952ba7f163c4a11628f55a4df523b3ef8360405162000484919062000b76565b60405180910390a35050565b620004a28282620005f260201b60201c565b6200057e5760016009600084815260200190815260200160002060000160008373ffffffffffffffffffffffffffffffffffffffff1673ffffffffffffffffffffffffffffffffffffffff16815260200190815260200160002060006101000a81548160ff021916908315150217905550620005236200065d60201b60201c565b73ffffffffffffffffffffffffffffffffffffffff168173ffffffffffffffffffffffffffffffffffffffff16837f2f8788117e7eff1d82e926ec794901d17c78024a50270940304540a733656f0d60405160405180910390a45b5050565b620005926200066560201b60201c565b15620005d5576040517f08c379a0000000000000000000000000000000000000000000000000000000008152600401620005cc9062000b32565b60405180910390fd5b620005ed8383836200067c60201b620012971760201c565b505050565b60006009600084815260200190815260200160002060000160008373ffffffffffffffffffffffffffffffffffffffff1673ffffffffffffffffffffffffffffffffffffffff16815260200190815260200160002060009054906101000a900460ff16905092915050565b600033905090565b6000600a60009054906101000a900460ff16905090565b620006948383836200077760201b620013511760201c565b600073ffffffffffffffffffffffffffffffffffffffff168373ffffffffffffffffffffffffffffffffffffffff161415620006f157620006db826200077c60201b60201c565b620006eb620007df60201b60201c565b62000772565b600073ffffffffffffffffffffffffffffffffffffffff168273ffffffffffffffffffffffffffffffffffffffff1614156200074e5762000738836200077c60201b60201c565b62000748620007df60201b60201c565b62000771565b6200075f836200077c60201b60201c565b62000770826200077c60201b60201c565b5b5b505050565b505050565b620007dc600560008373ffffffffffffffffffffffffffffffffffffffff1673ffffffffffffffffffffffffffffffffffffffff168152602001908152602001600020620007d0836200080360201b60201c565b6200084b60201b60201c565b50565b620008016006620007f5620008de60201b60201c565b6200084b60201b60201c565b565b60008060008373ffffffffffffffffffffffffffffffffffffffff1673ffffffffffffffffffffffffffffffffffffffff168152602001908152602001600020549050919050565b6000620008646008620008e860201b620013561760201c565b9050806200087b84600001620008f660201b60201c565b1015620008d95782600001819080600181540180825580915050600190039060005260206000200160009091909190915055826001018290806001815401808255809150506001900390600052602060002001600090919091909150555b505050565b6000600254905090565b600081600001549050919050565b600080828054905014156200090f576000905062000969565b816001838054905062000923919062000dfa565b815481106200095b577f4e487b7100000000000000000000000000000000000000000000000000000000600052603260045260246000fd5b906000526020600020015490505b919050565b8280546200097c9062000e8a565b90600052602060002090601f016020900481019282620009a05760008555620009ec565b82601f10620009bb57805160ff1916838001178555620009ec565b82800160010185558215620009ec579182015b82811115620009eb578251825591602001919060010190620009ce565b5b509050620009fb9190620009ff565b5090565b5b8082111562000a1a57600081600090555060010162000a00565b5090565b62000a298162000e35565b82525050565b62000a3a8162000e49565b82525050565b600062000a4f60108362000b93565b91507f5061757361626c653a20706175736564000000000000000000000000000000006000830152602082019050919050565b600062000a91601f8362000b93565b91507f45524332303a206d696e7420746f20746865207a65726f2061646472657373006000830152602082019050919050565b62000acf8162000e73565b82525050565b600060a08201905062000aec600083018862000a2f565b62000afb602083018762000a2f565b62000b0a604083018662000a2f565b62000b19606083018562000ac4565b62000b28608083018462000a1e565b9695505050505050565b6000602082019050818103600083015262000b4d8162000a40565b9050919050565b6000602082019050818103600083015262000b6f8162000a82565b9050919050565b600060208201905062000b8d600083018462000ac4565b92915050565b600082825260208201905092915050565b600062000bb18262000e73565b915062000bbe8362000e73565b9250827fffffffffffffffffffffffffffffffffffffffffffffffffffffffffffffffff0382111562000bf65762000bf562000ec0565b5b828201905092915050565b6000808291508390505b600185111562000c535780860481111562000c2b5762000c2a62000ec0565b5b600185161562000c3b5780820291505b808102905062000c4b8562000f1e565b945062000c0b565b94509492505050565b600062000c698262000e73565b915062000c768362000e7d565b925062000ca57fffffffffffffffffffffffffffffffffffffffffffffffffffffffffffffffff848462000cad565b905092915050565b60008262000cbf576001905062000d92565b8162000ccf576000905062000d92565b816001811462000ce8576002811462000cf35762000d29565b600191505062000d92565b60ff84111562000d085762000d0762000ec0565b5b8360020a91508482111562000d225762000d2162000ec0565b5b5062000d92565b5060208310610133831016604e8410600b841016171562000d635782820a90508381111562000d5d5762000d5c62000ec0565b5b62000d92565b62000d72848484600162000c01565b9250905081840481111562000d8c5762000d8b62000ec0565b5b81810290505b9392505050565b600062000da68262000e73565b915062000db38362000e73565b9250817fffffffffffffffffffffffffffffffffffffffffffffffffffffffffffffffff048311821515161562000def5762000dee62000ec0565b5b828202905092915050565b600062000e078262000e73565b915062000e148362000e73565b92508282101562000e2a5762000e2962000ec0565b5b828203905092915050565b600062000e428262000e53565b9050919050565b6000819050919050565b600073ffffffffffffffffffffffffffffffffffffffff82169050919050565b6000819050919050565b600060ff82169050919050565b6000600282049050600182168062000ea357607f821691505b6020821081141562000eba5762000eb962000eef565b5b50919050565b7f4e487b7100000000000000000000000000000000000000000000000000000000600052601160045260246000fd5b7f4e487b7100000000000000000000000000000000000000000000000000000000600052602260045260246000fd5b60008160011c9050919050565b60805160a05160c05160e051610100516101205161397d62000f7b6000396000610fe2015260006119580152600061199a01526000611979015260006119050152600061192d015261397d6000f3fe608060405234801561001057600080fd5b50600436106101fb5760003560e01c80637028e2cd1161011a578063981b24d0116100ad578063d505accf1161007c578063d505accf146105da578063d5391393146105f6578063d547741f14610614578063dd62ed3e14610630578063e63ab1e914610660576101fb565b8063981b24d01461052c578063a217fddf1461055c578063a457c2d71461057a578063a9059cbb146105aa576101fb565b80638456cb59116100e95780638456cb59146104ca57806391d14854146104d457806395d89b41146105045780639711715a14610522576101fb565b80637028e2cd1461043057806370a082311461044e57806379cc67901461047e5780637ecebe001461049a576101fb565b80633644e5151161019257806340c10f191161016157806340c10f19146103aa57806342966c68146103c65780634ee2cd7e146103e25780635c975abb14610412576101fb565b80633644e5151461033657806336568abe1461035457806339509351146103705780633f4ba83a146103a0576101fb565b806323b872dd116101ce57806323b872dd1461029c578063248a9ca3146102cc5780632f2ff15d146102fc578063313ce56714610318576101fb565b806301ffc9a71461020057806306fdde0314610230578063095ea7b31461024e57806318160ddd1461027e575b600080fd5b61021a60048036038101906102159190612849565b61067e565b60405161022791906131c2565b60405180910390f35b6102386106f8565b60405161024591906132f1565b60405180910390f35b610268600480360381019061026391906127a8565b61078a565b60405161027591906131c2565b60405180910390f35b6102866107a8565b60405161029391906135f3565b60405180910390f35b6102b660048036038101906102b191906126bb565b6107b2565b6040516102c391906131c2565b60405180910390f35b6102e660048036038101906102e191906127e4565b6108b3565b6040516102f391906131dd565b60405180910390f35b6103166004803603810190610311919061280d565b6108d3565b005b610320610939565b60405161032d919061360e565b60405180910390f35b61033e610942565b60405161034b91906131dd565b60405180910390f35b61036e6004803603810190610369919061280d565b610951565b005b61038a600480360381019061038591906127a8565b6109d4565b60405161039791906131c2565b60405180910390f35b6103a8610a80565b005b6103c460048036038101906103bf91906127a8565b610abd565b005b6103e060048036038101906103db9190612872565b610afe565b005b6103fc60048036038101906103f791906127a8565b610b12565b60405161040991906135f3565b60405180910390f35b61041a610b82565b60405161042791906131c2565b60405180910390f35b610438610b99565b60405161044591906131dd565b60405180910390f35b61046860048036038101906104639190612656565b610bbd565b60405161047591906135f3565b60405180910390f35b610498600480360381019061049391906127a8565b610c05565b005b6104b460048036038101906104af9190612656565b610c89565b6040516104c191906135f3565b60405180910390f35b6104d2610cd9565b005b6104ee60048036038101906104e9919061280d565b610d16565b6040516104fb91906131c2565b60405180910390f35b61050c610d81565b60405161051991906132f1565b60405180910390f35b61052a610e13565b005b61054660048036038101906105419190612872565b610e51565b60405161055391906135f3565b60405180910390f35b610564610e82565b60405161057191906131dd565b60405180910390f35b610594600480360381019061058f91906127a8565b610e89565b6040516105a191906131c2565b60405180910390f35b6105c460048036038101906105bf91906127a8565b610f7d565b6040516105d191906131c2565b60405180910390f35b6105f460048036038101906105ef919061270a565b610f9b565b005b6105fe611162565b60405161060b91906131dd565b60405180910390f35b61062e6004803603810190610629919061280d565b611186565b005b61064a6004803603810190610645919061267f565b6111ec565b60405161065791906135f3565b60405180910390f35b610668611273565b60405161067591906131dd565b60405180910390f35b60007f7965db0b000000000000000000000000000000000000000000000000000000007bffffffffffffffffffffffffffffffffffffffffffffffffffffffff1916827bffffffffffffffffffffffffffffffffffffffffffffffffffffffff191614806106f157506106f082611364565b5b9050919050565b606060038054610707906137c9565b80601f0160208091040260200160405190810160405280929190818152602001828054610733906137c9565b80156107805780601f1061075557610100808354040283529160200191610780565b820191906000526020600020905b81548152906001019060200180831161076357829003601f168201915b5050505050905090565b600061079e6107976113ce565b84846113d6565b6001905092915050565b6000600254905090565b60006107bf8484846115a1565b6000600160008673ffffffffffffffffffffffffffffffffffffffff1673ffffffffffffffffffffffffffffffffffffffff168152602001908152602001600020600061080a6113ce565b73ffffffffffffffffffffffffffffffffffffffff1673ffffffffffffffffffffffffffffffffffffffff1681526020019081526020016000205490508281101561088a576040517f08c379a0000000000000000000000000000000000000000000000000000000008152600401610881906134d3565b60405180910390fd5b6108a7856108966113ce565b85846108a291906136d7565b6113d6565b60019150509392505050565b600060096000838152602001908152602001600020600101549050919050565b6108ec6108df836108b3565b6108e76113ce565b610d16565b61092b576040517f08c379a000000000000000000000000000000000000000000000000000000000815260040161092290613373565b60405180910390fd5b6109358282611820565b5050565b60006012905090565b600061094c611901565b905090565b6109596113ce565b73ffffffffffffffffffffffffffffffffffffffff168173ffffffffffffffffffffffffffffffffffffffff16146109c6576040517f08c379a00000000000000000000000000000000000000000000000000000000081526004016109bd906135b3565b60405180910390fd5b6109d082826119c4565b5050565b6000610a766109e16113ce565b8484600160006109ef6113ce565b73ffffffffffffffffffffffffffffffffffffffff1673ffffffffffffffffffffffffffffffffffffffff16815260200190815260200160002060008873ffffffffffffffffffffffffffffffffffffffff1673ffffffffffffffffffffffffffffffffffffffff16815260200190815260200160002054610a719190613650565b6113d6565b6001905092915050565b610aaa7f65d7a28e3265b37a6474929f336521b332c1681b933f6cb9f3376673440d862a33610d16565b610ab357600080fd5b610abb611aa6565b565b610ae77f9f2df0fed2c77648de5860a4cc508cd0818c85b8b8a1ab4ceeef8d981c8956a633610d16565b610af057600080fd5b610afa8282611b48565b5050565b610b0f610b096113ce565b82611c9c565b50565b6000806000610b5f84600560008873ffffffffffffffffffffffffffffffffffffffff1673ffffffffffffffffffffffffffffffffffffffff168152602001908152602001600020611e70565b9150915081610b7657610b7185610bbd565b610b78565b805b9250505092915050565b6000600a60009054906101000a900460ff16905090565b7f5fdbd35e8da83ee755d5e62a539e5ed7f47126abede0b8b10f9ea43dc6eed07f81565b60008060008373ffffffffffffffffffffffffffffffffffffffff1673ffffffffffffffffffffffffffffffffffffffff168152602001908152602001600020549050919050565b6000610c1883610c136113ce565b6111ec565b905081811015610c5d576040517f08c379a0000000000000000000000000000000000000000000000000000000008152600401610c54906134f3565b60405180910390fd5b610c7a83610c696113ce565b8484610c7591906136d7565b6113d6565b610c848383611c9c565b505050565b6000610cd2600b60008473ffffffffffffffffffffffffffffffffffffffff1673ffffffffffffffffffffffffffffffffffffffff168152602001908152602001600020611356565b9050919050565b610d037f65d7a28e3265b37a6474929f336521b332c1681b933f6cb9f3376673440d862a33610d16565b610d0c57600080fd5b610d14611f8e565b565b60006009600084815260200190815260200160002060000160008373ffffffffffffffffffffffffffffffffffffffff1673ffffffffffffffffffffffffffffffffffffffff16815260200190815260200160002060009054906101000a900460ff16905092915050565b606060048054610d90906137c9565b80601f0160208091040260200160405190810160405280929190818152602001828054610dbc906137c9565b8015610e095780601f10610dde57610100808354040283529160200191610e09565b820191906000526020600020905b815481529060010190602001808311610dec57829003601f168201915b5050505050905090565b610e3d7f5fdbd35e8da83ee755d5e62a539e5ed7f47126abede0b8b10f9ea43dc6eed07f33610d16565b610e4657600080fd5b610e4e612031565b50565b6000806000610e61846006611e70565b9150915081610e7757610e726107a8565b610e79565b805b92505050919050565b6000801b81565b60008060016000610e986113ce565b73ffffffffffffffffffffffffffffffffffffffff1673ffffffffffffffffffffffffffffffffffffffff16815260200190815260200160002060008573ffffffffffffffffffffffffffffffffffffffff1673ffffffffffffffffffffffffffffffffffffffff16815260200190815260200160002054905082811015610f55576040517f08c379a0000000000000000000000000000000000000000000000000000000008152600401610f4c90613593565b60405180910390fd5b610f72610f606113ce565b858584610f6d91906136d7565b6113d6565b600191505092915050565b6000610f91610f8a6113ce565b84846115a1565b6001905092915050565b83421115610fde576040517f08c379a0000000000000000000000000000000000000000000000000000000008152600401610fd5906133f3565b60405180910390fd5b60007f000000000000000000000000000000000000000000000000000000000000000088888861104b600b60008e73ffffffffffffffffffffffffffffffffffffffff1673ffffffffffffffffffffffffffffffffffffffff168152602001908152602001600020611356565b89604051602001611061969594939291906131f8565b604051602081830303815290604052805190602001209050600061108482612089565b90506000611094828787876120a3565b90508973ffffffffffffffffffffffffffffffffffffffff168173ffffffffffffffffffffffffffffffffffffffff1614611104576040517f08c379a00000000000000000000000000000000000000000000000000000000081526004016110fb906134b3565b60405180910390fd5b61114b600b60008c73ffffffffffffffffffffffffffffffffffffffff1673ffffffffffffffffffffffffffffffffffffffff16815260200190815260200160002061222e565b6111568a8a8a6113d6565b50505050505050505050565b7f9f2df0fed2c77648de5860a4cc508cd0818c85b8b8a1ab4ceeef8d981c8956a681565b61119f611192836108b3565b61119a6113ce565b610d16565b6111de576040517f08c379a00000000000000000000000000000000000000000000000000000000081526004016111d590613453565b60405180910390fd5b6111e882826119c4565b5050565b6000600160008473ffffffffffffffffffffffffffffffffffffffff1673ffffffffffffffffffffffffffffffffffffffff16815260200190815260200160002060008373ffffffffffffffffffffffffffffffffffffffff1673ffffffffffffffffffffffffffffffffffffffff16815260200190815260200160002054905092915050565b7f65d7a28e3265b37a6474929f336521b332c1681b933f6cb9f3376673440d862a81565b6112a2838383611351565b600073ffffffffffffffffffffffffffffffffffffffff168373ffffffffffffffffffffffffffffffffffffffff1614156112ed576112e082612244565b6112e8612297565b61134c565b600073ffffffffffffffffffffffffffffffffffffffff168273ffffffffffffffffffffffffffffffffffffffff1614156113385761132b83612244565b611333612297565b61134b565b61134183612244565b61134a82612244565b5b5b505050565b505050565b600081600001549050919050565b60007f01ffc9a7000000000000000000000000000000000000000000000000000000007bffffffffffffffffffffffffffffffffffffffffffffffffffffffff1916827bffffffffffffffffffffffffffffffffffffffffffffffffffffffff1916149050919050565b600033905090565b600073ffffffffffffffffffffffffffffffffffffffff168373ffffffffffffffffffffffffffffffffffffffff161415611446576040517f08c379a000000000000000000000000000000000000000000000000000000000815260040161143d90613553565b60405180910390fd5b600073ffffffffffffffffffffffffffffffffffffffff168273ffffffffffffffffffffffffffffffffffffffff1614156114b6576040517f08c379a00000000000000000000000000000000000000000000000000000000081526004016114ad906133d3565b60405180910390fd5b80600160008573ffffffffffffffffffffffffffffffffffffffff1673ffffffffffffffffffffffffffffffffffffffff16815260200190815260200160002060008473ffffffffffffffffffffffffffffffffffffffff1673ffffffffffffffffffffffffffffffffffffffff168152602001908152602001600020819055508173ffffffffffffffffffffffffffffffffffffffff168373ffffffffffffffffffffffffffffffffffffffff167f8c5be1e5ebec7d5bd14f71427d1e84f3dd0314c0f7b2291e5b200ac8c7c3b9258360405161159491906135f3565b60405180910390a3505050565b600073ffffffffffffffffffffffffffffffffffffffff168373ffffffffffffffffffffffffffffffffffffffff161415611611576040517f08c379a000000000000000000000000000000000000000000000000000000000815260040161160890613533565b60405180910390fd5b600073ffffffffffffffffffffffffffffffffffffffff168273ffffffffffffffffffffffffffffffffffffffff161415611681576040517f08c379a000000000000000000000000000000000000000000000000000000000815260040161167890613353565b60405180910390fd5b61168c8383836122ab565b60008060008573ffffffffffffffffffffffffffffffffffffffff1673ffffffffffffffffffffffffffffffffffffffff16815260200190815260200160002054905081811015611712576040517f08c379a000000000000000000000000000000000000000000000000000000000815260040161170990613413565b60405180910390fd5b818161171e91906136d7565b6000808673ffffffffffffffffffffffffffffffffffffffff1673ffffffffffffffffffffffffffffffffffffffff16815260200190815260200160002081905550816000808573ffffffffffffffffffffffffffffffffffffffff1673ffffffffffffffffffffffffffffffffffffffff16815260200190815260200160002060008282546117ae9190613650565b925050819055508273ffffffffffffffffffffffffffffffffffffffff168473ffffffffffffffffffffffffffffffffffffffff167fddf252ad1be2c89b69c2b068fc378daa952ba7f163c4a11628f55a4df523b3ef8460405161181291906135f3565b60405180910390a350505050565b61182a8282610d16565b6118fd5760016009600084815260200190815260200160002060000160008373ffffffffffffffffffffffffffffffffffffffff1673ffffffffffffffffffffffffffffffffffffffff16815260200190815260200160002060006101000a81548160ff0219169083151502179055506118a26113ce565b73ffffffffffffffffffffffffffffffffffffffff168173ffffffffffffffffffffffffffffffffffffffff16837f2f8788117e7eff1d82e926ec794901d17c78024a50270940304540a733656f0d60405160405180910390a45b5050565b60007f0000000000000000000000000000000000000000000000000000000000000000461415611953577f000000000000000000000000000000000000000000000000000000000000000090506119c1565b6119be7f00000000000000000000000000000000000000000000000000000000000000007f00000000000000000000000000000000000000000000000000000000000000007f0000000000000000000000000000000000000000000000000000000000000000612303565b90505b90565b6119ce8282610d16565b15611aa25760006009600084815260200190815260200160002060000160008373ffffffffffffffffffffffffffffffffffffffff1673ffffffffffffffffffffffffffffffffffffffff16815260200190815260200160002060006101000a81548160ff021916908315150217905550611a476113ce565b73ffffffffffffffffffffffffffffffffffffffff168173ffffffffffffffffffffffffffffffffffffffff16837ff6391f5c32d9c69d2a47ea670b442974b53935d1edc7fd64eb21e047a839171b60405160405180910390a45b5050565b611aae610b82565b611aed576040517f08c379a0000000000000000000000000000000000000000000000000000000008152600401611ae490613393565b60405180910390fd5b6000600a60006101000a81548160ff0219169083151502179055507f5db9ee0a495bf2e6ff9c91a7834c1ba4fdd244a5e8aa4e537bd38aeae4b073aa611b316113ce565b604051611b3e91906131a7565b60405180910390a1565b600073ffffffffffffffffffffffffffffffffffffffff168273ffffffffffffffffffffffffffffffffffffffff161415611bb8576040517f08c379a0000000000000000000000000000000000000000000000000000000008152600401611baf906135d3565b60405180910390fd5b611bc4600083836122ab565b8060026000828254611bd69190613650565b92505081905550806000808473ffffffffffffffffffffffffffffffffffffffff1673ffffffffffffffffffffffffffffffffffffffff1681526020019081526020016000206000828254611c2b9190613650565b925050819055508173ffffffffffffffffffffffffffffffffffffffff16600073ffffffffffffffffffffffffffffffffffffffff167fddf252ad1be2c89b69c2b068fc378daa952ba7f163c4a11628f55a4df523b3ef83604051611c9091906135f3565b60405180910390a35050565b600073ffffffffffffffffffffffffffffffffffffffff168273ffffffffffffffffffffffffffffffffffffffff161415611d0c576040517f08c379a0000000000000000000000000000000000000000000000000000000008152600401611d0390613513565b60405180910390fd5b611d18826000836122ab565b60008060008473ffffffffffffffffffffffffffffffffffffffff1673ffffffffffffffffffffffffffffffffffffffff16815260200190815260200160002054905081811015611d9e576040517f08c379a0000000000000000000000000000000000000000000000000000000008152600401611d95906133b3565b60405180910390fd5b8181611daa91906136d7565b6000808573ffffffffffffffffffffffffffffffffffffffff1673ffffffffffffffffffffffffffffffffffffffff168152602001908152602001600020819055508160026000828254611dfe91906136d7565b92505081905550600073ffffffffffffffffffffffffffffffffffffffff168373ffffffffffffffffffffffffffffffffffffffff167fddf252ad1be2c89b69c2b068fc378daa952ba7f163c4a11628f55a4df523b3ef84604051611e6391906135f3565b60405180910390a3505050565b60008060008411611eb6576040517f08c379a0000000000000000000000000000000000000000000000000000000008152600401611ead90613573565b60405180910390fd5b611ec06008611356565b841115611f02576040517f08c379a0000000000000000000000000000000000000000000000000000000008152600401611ef990613333565b60405180910390fd5b6000611f1a858560000161233d90919063ffffffff16565b90508360000180549050811415611f38576000809250925050611f87565b6001846001018281548110611f76577f4e487b7100000000000000000000000000000000000000000000000000000000600052603260045260246000fd5b906000526020600020015492509250505b9250929050565b611f96610b82565b15611fd6576040517f08c379a0000000000000000000000000000000000000000000000000000000008152600401611fcd90613473565b60405180910390fd5b6001600a60006101000a81548160ff0219169083151502179055507f62e78cea01bee320cd4e420270b5ea74000d11b0c9f74754ebdbfc544b05a25861201a6113ce565b60405161202791906131a7565b60405180910390a1565b600061203d600861222e565b60006120496008611356565b90507f8030e83b04d87bef53480e26263266d6ca66863aa8506aca6f2559d18aa1cb678160405161207a91906135f3565b60405180910390a18091505090565b600061209c612096611901565b83612463565b9050919050565b60007f7fffffffffffffffffffffffffffffff5d576e7357a4501ddfe92f46681b20a08260001c111561210b576040517f08c379a000000000000000000000000000000000000000000000000000000000815260040161210290613433565b60405180910390fd5b601b8460ff1614806121205750601c8460ff16145b61215f576040517f08c379a000000000000000000000000000000000000000000000000000000000815260040161215690613493565b60405180910390fd5b60006001868686866040516000815260200160405260405161218494939291906132ac565b6020604051602081039080840390855afa1580156121a6573d6000803e3d6000fd5b505050602060405103519050600073ffffffffffffffffffffffffffffffffffffffff168173ffffffffffffffffffffffffffffffffffffffff161415612222576040517f08c379a000000000000000000000000000000000000000000000000000000000815260040161221990613313565b60405180910390fd5b80915050949350505050565b6001816000016000828254019250508190555050565b612294600560008373ffffffffffffffffffffffffffffffffffffffff1673ffffffffffffffffffffffffffffffffffffffff16815260200190815260200160002061228f83610bbd565b612496565b50565b6122a960066122a46107a8565b612496565b565b6122b3610b82565b156122f3576040517f08c379a00000000000000000000000000000000000000000000000000000000081526004016122ea90613473565b60405180910390fd5b6122fe838383611297565b505050565b6000838383463060405160200161231e959493929190613259565b6040516020818303038152906040528051906020012090509392505050565b60008083805490501415612354576000905061245d565b600080848054905090505b808210156123de5760006123738383612513565b9050848682815481106123af577f4e487b7100000000000000000000000000000000000000000000000000000000600052603260045260246000fd5b906000526020600020015411156123c8578091506123d8565b6001816123d59190613650565b92505b5061235f565b60008211801561243c575083856001846123f891906136d7565b8154811061242f577f4e487b7100000000000000000000000000000000000000000000000000000000600052603260045260246000fd5b9060005260206000200154145b156124575760018261244e91906136d7565b9250505061245d565b81925050505b92915050565b60008282604051602001612478929190613170565b60405160208183030381529060405280519060200120905092915050565b60006124a26008611356565b9050806124b18460000161257a565b101561250e5782600001819080600181540180825580915050600190039060005260206000200160009091909190915055826001018290806001815401808255809150506001900390600052602060002001600090919091909150555b505050565b6000600280836125239190613805565b6002856125309190613805565b61253a9190613650565b61254491906136a6565b60028361255191906136a6565b60028561255e91906136a6565b6125689190613650565b6125729190613650565b905092915050565b6000808280549050141561259157600090506125e8565b81600183805490506125a391906136d7565b815481106125da577f4e487b7100000000000000000000000000000000000000000000000000000000600052603260045260246000fd5b906000526020600020015490505b919050565b6000813590506125fc816138d4565b92915050565b600081359050612611816138eb565b92915050565b60008135905061262681613902565b92915050565b60008135905061263b81613919565b92915050565b60008135905061265081613930565b92915050565b60006020828403121561266857600080fd5b6000612676848285016125ed565b91505092915050565b6000806040838503121561269257600080fd5b60006126a0858286016125ed565b92505060206126b1858286016125ed565b9150509250929050565b6000806000606084860312156126d057600080fd5b60006126de868287016125ed565b93505060206126ef868287016125ed565b92505060406127008682870161262c565b9150509250925092565b600080600080600080600060e0888a03121561272557600080fd5b60006127338a828b016125ed565b97505060206127448a828b016125ed565b96505060406127558a828b0161262c565b95505060606127668a828b0161262c565b94505060806127778a828b01612641565b93505060a06127888a828b01612602565b92505060c06127998a828b01612602565b91505092959891949750929550565b600080604083850312156127bb57600080fd5b60006127c9858286016125ed565b92505060206127da8582860161262c565b9150509250929050565b6000602082840312156127f657600080fd5b600061280484828501612602565b91505092915050565b6000806040838503121561282057600080fd5b600061282e85828601612602565b925050602061283f858286016125ed565b9150509250929050565b60006020828403121561285b57600080fd5b600061286984828501612617565b91505092915050565b60006020828403121561288457600080fd5b60006128928482850161262c565b91505092915050565b6128a48161370b565b82525050565b6128b38161371d565b82525050565b6128c281613729565b82525050565b6128d96128d482613729565b6137fb565b82525050565b60006128ea82613629565b6128f48185613634565b9350612904818560208601613796565b61290d816138c3565b840191505092915050565b6000612925601883613634565b91507f45434453413a20696e76616c6964207369676e617475726500000000000000006000830152602082019050919050565b6000612965601d83613634565b91507f4552433230536e617073686f743a206e6f6e6578697374656e742069640000006000830152602082019050919050565b60006129a5602383613634565b91507f45524332303a207472616e7366657220746f20746865207a65726f206164647260008301527f65737300000000000000000000000000000000000000000000000000000000006020830152604082019050919050565b6000612a0b602f83613634565b91507f416363657373436f6e74726f6c3a2073656e646572206d75737420626520616e60008301527f2061646d696e20746f206772616e7400000000000000000000000000000000006020830152604082019050919050565b6000612a71601483613634565b91507f5061757361626c653a206e6f74207061757365640000000000000000000000006000830152602082019050919050565b6000612ab1602283613634565b91507f45524332303a206275726e20616d6f756e7420657863656564732062616c616e60008301527f63650000000000000000000000000000000000000000000000000000000000006020830152604082019050919050565b6000612b17602283613634565b91507f45524332303a20617070726f766520746f20746865207a65726f20616464726560008301527f73730000000000000000000000000000000000000000000000000000000000006020830152604082019050919050565b6000612b7d600283613645565b91507f19010000000000000000000000000000000000000000000000000000000000006000830152600282019050919050565b6000612bbd601d83613634565b91507f45524332305065726d69743a206578706972656420646561646c696e650000006000830152602082019050919050565b6000612bfd602683613634565b91507f45524332303a207472616e7366657220616d6f756e742065786365656473206260008301527f616c616e636500000000000000000000000000000000000000000000000000006020830152604082019050919050565b6000612c63602283613634565b91507f45434453413a20696e76616c6964207369676e6174757265202773272076616c60008301527f75650000000000000000000000000000000000000000000000000000000000006020830152604082019050919050565b6000612cc9603083613634565b91507f416363657373436f6e74726f6c3a2073656e646572206d75737420626520616e60008301527f2061646d696e20746f207265766f6b65000000000000000000000000000000006020830152604082019050919050565b6000612d2f601083613634565b91507f5061757361626c653a20706175736564000000000000000000000000000000006000830152602082019050919050565b6000612d6f602283613634565b91507f45434453413a20696e76616c6964207369676e6174757265202776272076616c60008301527f75650000000000000000000000000000000000000000000000000000000000006020830152604082019050919050565b6000612dd5601e83613634565b91507f45524332305065726d69743a20696e76616c6964207369676e617475726500006000830152602082019050919050565b6000612e15602883613634565b91507f45524332303a207472616e7366657220616d6f756e742065786365656473206160008301527f6c6c6f77616e63650000000000000000000000000000000000000000000000006020830152604082019050919050565b6000612e7b602483613634565b91507f45524332303a206275726e20616d6f756e74206578636565647320616c6c6f7760008301527f616e6365000000000000000000000000000000000000000000000000000000006020830152604082019050919050565b6000612ee1602183613634565b91507f45524332303a206275726e2066726f6d20746865207a65726f2061646472657360008301527f73000000000000000000000000000000000000000000000000000000000000006020830152604082019050919050565b6000612f47602583613634565b91507f45524332303a207472616e736665722066726f6d20746865207a65726f20616460008301527f64726573730000000000000000000000000000000000000000000000000000006020830152604082019050919050565b6000612fad602483613634565b91507f45524332303a20617070726f76652066726f6d20746865207a65726f2061646460008301527f72657373000000000000000000000000000000000000000000000000000000006020830152604082019050919050565b6000613013601683613634565b91507f4552433230536e617073686f743a2069642069732030000000000000000000006000830152602082019050919050565b6000613053602583613634565b91507f45524332303a2064656372656173656420616c6c6f77616e63652062656c6f7760008301527f207a65726f0000000000000000000000000000000000000000000000000000006020830152604082019050919050565b60006130b9602f83613634565b91507f416363657373436f6e74726f6c3a2063616e206f6e6c792072656e6f756e636560008301527f20726f6c657320666f722073656c6600000000000000000000000000000000006020830152604082019050919050565b600061311f601f83613634565b91507f45524332303a206d696e7420746f20746865207a65726f2061646472657373006000830152602082019050919050565b61315b8161377f565b82525050565b61316a81613789565b82525050565b600061317b82612b70565b915061318782856128c8565b60208201915061319782846128c8565b6020820191508190509392505050565b60006020820190506131bc600083018461289b565b92915050565b60006020820190506131d760008301846128aa565b92915050565b60006020820190506131f260008301846128b9565b92915050565b600060c08201905061320d60008301896128b9565b61321a602083018861289b565b613227604083018761289b565b6132346060830186613152565b6132416080830185613152565b61324e60a0830184613152565b979650505050505050565b600060a08201905061326e60008301886128b9565b61327b60208301876128b9565b61328860408301866128b9565b6132956060830185613152565b6132a2608083018461289b565b9695505050505050565b60006080820190506132c160008301876128b9565b6132ce6020830186613161565b6132db60408301856128b9565b6132e860608301846128b9565b95945050505050565b6000602082019050818103600083015261330b81846128df565b905092915050565b6000602082019050818103600083015261332c81612918565b9050919050565b6000602082019050818103600083015261334c81612958565b9050919050565b6000602082019050818103600083015261336c81612998565b9050919050565b6000602082019050818103600083015261338c816129fe565b9050919050565b600060208201905081810360008301526133ac81612a64565b9050919050565b600060208201905081810360008301526133cc81612aa4565b9050919050565b600060208201905081810360008301526133ec81612b0a565b9050919050565b6000602082019050818103600083015261340c81612bb0565b9050919050565b6000602082019050818103600083015261342c81612bf0565b9050919050565b6000602082019050818103600083015261344c81612c56565b9050919050565b6000602082019050818103600083015261346c81612cbc565b9050919050565b6000602082019050818103600083015261348c81612d22565b9050919050565b600060208201905081810360008301526134ac81612d62565b9050919050565b600060208201905081810360008301526134cc81612dc8565b9050919050565b600060208201905081810360008301526134ec81612e08565b9050919050565b6000602082019050818103600083015261350c81612e6e565b9050919050565b6000602082019050818103600083015261352c81612ed4565b9050919050565b6000602082019050818103600083015261354c81612f3a565b9050919050565b6000602082019050818103600083015261356c81612fa0565b9050919050565b6000602082019050818103600083015261358c81613006565b9050919050565b600060208201905081810360008301526135ac81613046565b9050919050565b600060208201905081810360008301526135cc816130ac565b9050919050565b600060208201905081810360008301526135ec81613112565b9050919050565b60006020820190506136086000830184613152565b92915050565b60006020820190506136236000830184613161565b92915050565b600081519050919050565b600082825260208201905092915050565b600081905092915050565b600061365b8261377f565b91506136668361377f565b9250827fffffffffffffffffffffffffffffffffffffffffffffffffffffffffffffffff0382111561369b5761369a613836565b5b828201905092915050565b60006136b18261377f565b91506136bc8361377f565b9250826136cc576136cb613865565b5b828204905092915050565b60006136e28261377f565b91506136ed8361377f565b925082821015613700576136ff613836565b5b828203905092915050565b60006137168261375f565b9050919050565b60008115159050919050565b6000819050919050565b60007fffffffff0000000000000000000000000000000000000000000000000000000082169050919050565b600073ffffffffffffffffffffffffffffffffffffffff82169050919050565b6000819050919050565b600060ff82169050919050565b60005b838110156137b4578082015181840152602081019050613799565b838111156137c3576000848401525b50505050565b600060028204905060018216806137e157607f821691505b602082108114156137f5576137f4613894565b5b50919050565b6000819050919050565b60006138108261377f565b915061381b8361377f565b92508261382b5761382a613865565b5b828206905092915050565b7f4e487b7100000000000000000000000000000000000000000000000000000000600052601160045260246000fd5b7f4e487b7100000000000000000000000000000000000000000000000000000000600052601260045260246000fd5b7f4e487b7100000000000000000000000000000000000000000000000000000000600052602260045260246000fd5b6000601f19601f8301169050919050565b6138dd8161370b565b81146138e857600080fd5b50565b6138f481613729565b81146138ff57600080fd5b50565b61390b81613733565b811461391657600080fd5b50565b6139228161377f565b811461392d57600080fd5b50565b61393981613789565b811461394457600080fd5b5056fea264697066735822122072ad8d1c797808ea753816c94e7dbdf1b587adcd93756a3449f59eefd636a73464736f6c63430008000033",
  "linkReferences": {},
  "deployedLinkReferences": {}
}